:020000040000FA
:100000000314FF309F0003108601061486140615A2
:10001000861506168616061786173A2006108610CD
:100020000611861106128612061386133A2006144C
:100030008614061586150616861606178617472097
:1000400006108610061186110612861206138613F4
:100050003A200614472086144720061547208615A7
:10006000472086114720061147208610472006109A
:10007000472005282330A4006430A3006430A20088
:10008000A20B4028A30B3E28A40B3C280800C53037
:10009000A000FD30A10064006400A10B4B28A00B60
:0600A00049285228080067
:0400A60000340034EE
:02400E00103F61
:00000001FF
