:020000040000FA
:1000000047200B20132020200528A309132041207E
:100010002020412005281430A0001E30A1004630C9
:10002000A200A30108002008220203181920512071
:100030000800A00A562020082202031D19280800E3
:10004000A1002002031825205B20A0034C202318C8
:100050002E20A1002002031D2E2808000230A0023D
:100060000800FA30A4000000A40B3328FA30A500E1
:100070003120A50B382808000430A6003620A60B36
:1000800008000A3027083C20A70B432808008316E5
:10009000F030860083120800831206143620061002
:1000A0000800831286143620861008008312061575
:1000B00036200611080083128615362086110800A6
:0400C00000340034D4
:02400E00103F61
:00000001FF
